:1000000008C1000036C1000034C1000032C1000048
:1000100030C100002EC100002CC100002AC1000028
:1000200028C1000026C1000024C1000022C1000038
:1000300020C100001EC100001CC100001AC1000048
:1000400018C10000C6C6000014C1000012C10000A3
:1000500010C100000EC100000CC10000B4C40000BB
:1000600008C10000FAC4000004C100006CC5000013
:1000700000C10000FEC00000FCC00000FAC000008B
:100080007BC60000F6C00000F4C00000F2C0000013
:10009000F0C00000EEC00000ECC00000EAC00000AC
:1000A000E8C00000E6C000003AC60000E2C0000060
:1000B000E0C00000DEC00000DCC0000003C600009D
:1000C000D8C00000D6C00000D4C00000D2C00000DC
:1000D000D0C00000CEC00000CCC00000CAC00000EC
:1000E000C8C00000D601D901C801CC01D00110025E
:1000F000DD01E101E701EB01EF01F501F901FD018E
:100100001002030207020B0200000A0B02090C0D89
:100110000E080703040100000000000000000000BA
:1001200000000000000000000000000000000000CF
:10013000000000001211100000000000000000008C
:1001400000000000000000000000000000000000AF
:100150002200250028002B002E003100340002016F
:100160000000050108010B01000021002400270008
:100170002A002D00300033000101000004010701B6
:100180000A0105050505070508080808020202021C
:100190000A0A080804040404010101010101010123
:1001A0000303030303030303040707070C0C0C0CEE
:1001B0000C0C0C0C020202020606060606060606D7
:1001C0000B0B0B0B0B0B0B0B010210202008081064
:1001D00020401020408002010201080402010102B7
:1001E0000408102040808040201008040201800490
:1001F00002018040201008040201080402010102EB
:100200000408102040800102040810204080EB0800
:10021000500911241FBECFEFD1E2DEBFCDBF00E0F9
:100220000CBF12E0A0E0B2E0E0E8F6E100E00BBFB6
:1002300002C007900D92AA31B107D9F723E0AAE1D5
:10024000B2E001C01D92AF39B207E1F711E0C8E09A
:10025000D1E000E006C021970109802FFE010E9435
:10026000F609C730D10780E00807A9F7DFD50C945D
:100270002F0BC6CE90E0FC01E853FE4F2491FC0109
:10028000EE57FE4F8491882399F090E0880F991FD4
:10029000FC01E859FE4FA591B491FC01E25BFE4FD1
:1002A000859194918FB7F894EC91E22BEC938FBFEA
:1002B0000895FC01662361F084E090E093838283DB
:1002C00010929A0310929903109298031092970338
:1002D000828193818530910539F18630910569F1EC
:1002E000049799F58091970390919803DF01A80FE7
:1002F000B91F14964C912091990330919A03240FC1
:10030000311D30939A03209399030196909398039B
:10031000809397034093C600268130E082179307AD
:10032000A0F085E090E006C080919A038093C6001B
:1003300086E090E09383828308C080919903809344
:10034000C6001382128281E0089580E00895362F5E
:1003500090E0FC01E85FFE4F4491FC01E853FE4F42
:100360002491FC01EE57FE4F9491992309F46BC040
:10037000442309F455C050E0FA013197E231F10508
:1003800008F04EC08827EE58FF4F8F4F0C94F609A7
:10039000809180008F7707C0809180008F7D03C09F
:1003A00080918000877F809380003AC084B58F77EA
:1003B00002C084B58F7D84BD33C08091B0008F773B
:1003C00003C08091B0008F7D8093B00029C08091E0
:1003D00090008F7707C0809190008F7D03C080913F
:1003E0009000877F809390001BC08091A0008F7742
:1003F00007C08091A0008F7D03C08091A000877FFF
:100400008093A0000DC0809120018F7707C080915C
:1004100020018F7D03C080912001877F8093200180
:10042000E92FF0E0EE0FFF1FE25BFE4FA591B491C4
:100430008FB7F894EC91311103C020952E2301C0A1
:100440002E2B2C938FBF08952091C2002E602093F5
:10045000C2008230910551F18CF4009719F1019797
:10046000E9F51092C50083E08093C4001092310238
:100470001092300280E98093C10016C0833091054C
:10048000F9F0049759F51092C0001092C50083E16D
:100490008093C4001092C60088E48093C10088E075
:1004A00090E017C01092C10060E018C01092C60022
:1004B00090932B0280932A0288E48093C1000DC0A0
:1004C0001092C50023E02093C4001092C600109241
:1004D000C10090932B0280932A0261E08091250253
:1004E00087FF35CF0895CF93DF93FC01442351F06C
:1004F00081E090E09383828315AE14AE10922402C3
:1005000010922302209123023091240228333105D6
:1005100008F066C08281938183309105D9F034F46C
:100520008130910551F0029761F05CC085309105F2
:10053000D1F1FCF00697D9F155C0648382E090E0D8
:1005400006C0613009F04CC0658383E090E093837E
:10055000828348C0668324E030E03383228370E0E6
:1005600063537F4F75AF64AF90932402809323024F
:1005700039C0A9014F5F5F4F50932402409323027B
:10058000DF01A20FB31F14966C9384AD95AD860F57
:10059000911D95AF84AF868190E04817590710F1FF
:1005A00085E090E0D4CF65AF86E090E0D0CFEF015A
:1005B00064AF24AD35ADC90160E070E003D78217A8
:1005C000930761F487E090E0938382830190F08148
:1005D000E02D0680F781E02DCE0119951B821A824D
:1005E00081E001C080E0DF91CF910895EF92FF920A
:1005F0001F93CF93DF93EC01162F442399F08A8544
:100600009B85039759F4E0912102F09122023097E3
:1006100029F080911F0290912002199581E090E0CD
:100620009B878A878A859B8582309105D1F08330AC
:10063000910539F1019709F056C0E881F9810480EC
:10064000F581E02D412F60E070E0CE01199588859D
:1006500099859093200280931F0282E090E09B870F
:100660008A8780911F029091200201979093200227
:1006700080931F02892BB9F583E090E09B878A87DE
:1006800032C0E0901F02F0902002C70101969093C3
:10069000200280931F02E881F9810190F081E02D12
:1006A000CE011995E816F90668F4E881F9816091A0
:1006B0001F02709120020480F581E02D412FCE01B0
:1006C000199511C084E090E09B878A87E091210210
:1006D000F0912202309749F080911F029091200200
:1006E0000297199502C080E001C081E0DF91CF91AF
:1006F0001F91FF90EF900895FC01248135816217CE
:10070000730730F486819781FC01E60FF71F408361
:100710000895FC01248135816217730738F48681BE
:100720009781FC01E60FF71F8081089580E008950E
:10073000FC01848195810895CF92DF92EF92FF9220
:10074000CF93DF93EC01603282E078070CF03BC07E
:1007500077FD06C0653B71052CF064EB70E002C0CC
:1007600060E070E0898128E830E06901C81AD108AA
:1007700087FDD394CC0CDD1CCC0CDD1C0D2C000CA7
:10078000EE08FF088A8128E532E0281B310987FD41
:100790003395220F331F220F331FC901330FAA0BCA
:1007A000BB0B9C01AD012C193D094E095F09DB0112
:1007B000C6D524EB30E040E050E09BD5C20ED31EFE
:1007C000E41EF51EB6018881803380F5998148E8E2
:1007D00050E0491B510997FD5395440F551F440F95
:1007E000551F6417750784F09A8128E532E0291BAC
:1007F000310997FD3395220F331F220F331FAB01B1
:10080000261737070CF4A90142505109440F551F10
:100810002FB7F89490E0FC01EE0FFF1F8E0F9F1F83
:10082000FC01E95CFD4F528341832FBFDF91CF91E3
:10083000FF90EF90DF90CF900895CF92DF92EF92EC
:10084000FF920F931F93CF93DF936C018B017A017B
:10085000EC01C55EDD4F888187FF04C0FB0111827A
:10086000108224C08CE08C9D90018D9D300D112450
:100870008881A901480F511D87FD5A9580911A0260
:1008800090E04817590794F48881A901480F511D39
:1008900087FD5A95CA01FA01EE0FFF1F8E0F9F1FA9
:1008A000FC01E95CFD4F808186FD19C088818F5F66
:1008B00088838CE08C9D90018D9D300D1124888162
:1008C000A901480F511D87FD5A9580911A0290E0A9
:1008D00048175907B4F488818C303CF112C08881E4
:1008E000280F311D87FD3A95F901EE0FFF1F2E0FDE
:1008F0003F1FF901E95CFD4F808160E08F7327DDC8
:10090000D5CFF80180819181049680349C4918F4F8
:1009100080E49CE904C0F801808191810496F7018C
:10092000918380838FEF888344C0F8014081518197
:100930008881B901680F711D87FD7A95CB01FB0194
:10094000EE0FFF1F8E0F9F1FFC01E95CFD4F8181A1
:100950009281840F951FF701918380838881A9017B
:10096000480F511D87FD5A95CA01FA01EE0FFF1F6E
:100970008E0F9F1FFC01E95CFD4F808186FF19C02F
:100980008881280F311D87FD3A95F901EE0FFF1F71
:100990002E0F3F1FF901E95CFD4F808161E08F73ED
:1009A000DF91CF911F910F91FF90EF90DF90CF904B
:1009B000CECCDF91CF911F910F91FF90EF90DF9000
:1009C000CF90089548D61F920F920FB60F92112420
:1009D0002F933F938F939F93AF93BF938091C702C1
:1009E0009091C802A091C902B091CA02309136021A
:1009F00023E0230F2D3720F40196A11DB11D05C062
:100A000026E8230F0296A11DB11D20933602809384
:100A1000C7029093C802A093C902B093CA02809102
:100A2000320290913302A0913402B09135020196C6
:100A3000A11DB11D8093320290933302A093340222
:100A4000B0933502BF91AF919F918F913F912F91BC
:100A50000F900FBE0F901F9018951F920F920FB618
:100A60000F9211240BB60F922F933F934F935F93E6
:100A70006F937F938F939F93AF93BF93EF93FF9366
:100A80008091C0006091C60084FF08C08091C000C2
:100A90008F7E8093C00081E090E018C0809130028A
:100AA000909131028530910539F18930910589F1B4
:100AB0000197B1F580912E0290912F02009759F085
:100AC000611109C041E092DD85E090E09093310230
:100AD0008093300225C080912C0290912D020097C6
:100AE00099F06C3C89F4FC0126AD22FF0DC041E079
:100AF000FADC89E090E0EACF40E080912E0290910C
:100B00002F0274DD882361F01092310210923002BE
:100B100007C040E080912C0290912D02E4DCF2CFDE
:100B2000FF91EF91BF91AF919F918F917F916F91C5
:100B30005F914F913F912F910F900BBE0F900FBE81
:100B40000F901F9018951F920F920FB60F921124BD
:100B50000BB60F922F933F934F935F936F937F93B7
:100B60008F939F93AF93BF93CF93DF93EF93FF93B5
:100B700080912A0290912B028630910509F44FC092
:100B800004F582309105C1F1049709F086C01092F6
:100B9000C0001092C50083E08093C40081E090E023
:100BA0009093290280932802E0912602F091270277
:100BB0000680F781E02D80818093C60086E090E07A
:100BC00060C08A30910509F452C08B30910509F458
:100BD0005DC0089709F061C01092C0001092C50076
:100BE00083E08093C40061E080912C0290912D02FB
:100BF00060DB8AE090E045C01092C0001092C50012
:100C000083E18093C4001092C60080912A029091E3
:100C10002B02029709F041C084E090E032C0C091FD
:100C20002602D0912702E881F9810280F381E02D2C
:100C30006091280270912902CB01019690932902BC
:100C400080932802CE0119958093C60080912802D6
:100C5000909129028130924000F18885882319F013
:100C600082E090E00EC083E090E0EEDB16C060E032
:100C700080912C0290912D021CDB882371F08BE077
:100C800090E090932B0280932A0207C081E090E0CD
:100C9000DBDB10922B0210922A02FF91EF91DF9181
:100CA000CF91BF91AF919F918F917F916F915F9104
:100CB0004F913F912F910F900BBE0F900FBE0F9051
:100CC0001F9018951F920F920FB60F9211240BB61A
:100CD0000F922F933F934F935F936F937F938F93D5
:100CE0009F93AF93BF93EF93FF9348E251E064E289
:100CF00071E080E090E0A1DDFF91EF91BF91AF91B5
:100D00009F918F917F916F915F914F913F912F9123
:100D10000F900BBE0F900FBE0F901F9018951F9253
:100D20000F920FB60F9211240BB60F922F933F9391
:100D30004F935F936F937F938F939F93AF93BF93E3
:100D4000EF93FF9348EA50E064EA70E083E090E0BC
:100D500074DDFF91EF91BF91AF919F918F917F9142
:100D60006F915F914F913F912F910F900BBE0F901C
:100D70000FBE0F901F9018951F920F920FB60F92F3
:100D800011240BB60F922F933F934F935F936F9362
:100D90007F938F939F93AF93BF93EF93FF9348E914
:100DA00050E064E970E082E090E047DDFF91EF9170
:100DB000BF91AF919F918F917F916F915F914F9173
:100DC0003F912F910F900BBE0F900FBE0F901F9071
:100DD00018951F920F920FB60F9211240BB60F9217
:100DE0002F933F934F935F936F937F938F939F9333
:100DF000AF93BF93EF93FF9348E850E064E870E04F
:100E000081E090E01ADDFF91EF91BF91AF919F914A
:100E10008F917F916F915F914F913F912F910F90A3
:100E20000BBE0F900FBE0F901F901895CF93DF93BE
:100E300000D01F92CDB7DEB7789484B5826084BDB0
:100E400084B5816084BD85B5826085BD85B58160CE
:100E500085BD80916E00816080936E00109281004C
:100E60008091810082608093810080918100816007
:100E700080938100809180008160809380008091C8
:100E8000B10084608093B1008091B0008160809354
:100E9000B0008091910082608093910080919100D8
:100EA0008160809391008091900081608093900098
:100EB0008091A10082608093A1008091A100816057
:100EC0008093A1008091A00081608093A000809118
:100ED00021018260809321018091210181608093B2
:100EE00021018091200181608093200180917A000E
:100EF000846080937A0080917A00826080937A0087
:100F000080917A00816080937A0080917A00806875
:100F100080937A001092C10013E3E12E13E0F12ECA
:100F200003E113E081E3882E83E0982EB12C9CE04E
:100F3000C92E22E0D22ED4018C91803308F051C00A
:100F40008B2D98D9F4018081E82FF0E09F01220FCA
:100F5000331FE20FF31FE95CFD4F9081907C2B2D36
:100F60002F73922B9083F70131971082D7011C9237
:100F70006C2D1CD2BCE08B9FB001112440E050E0EE
:100F80009A01260F371FF901EE0FFF1F2E0F3F1F8B
:100F9000F901E95CFD4F908196FD16C04F5F5F4FF0
:100FA0004C30510569F7813009F0E2C010928000A1
:100FB000D09281001092850010928400B19A8091A5
:100FC0006F00826080936F00D401EC91F0E0CF015C
:100FD000880F991FE80FF91FE95CFD4F808180643D
:100FE00080836AE570E0C401A7DBF80111921192D9
:100FF0008F01F3E08F0E911CB39483E0E80EF11C97
:101000009FE0B91298CF81E090E01EDA81E090E095
:101010009093100380930F038FB7F8948090C702CA
:101020009090C802A090C902B090CA028FBF0BEC8A
:1010300012E0ABE5B3E0BC83AB83E3E1F3E0FA831A
:10104000E98321E3E22E23E0F22EC12CD12C2401EE
:101050003501FEEE4F0EF2E05F1E611C711CF801BF
:1010600080819181A281B3810097A105B10581F0B2
:1010700088159905AA05BB0558F4108211821282C1
:101080001382EB81FC8110821182128213821EC0B6
:10109000EB81FC8140815181628173814115510551
:1010A0006105710599F0481559056A057B0570F4CD
:1010B000892B8A2B8B2B51F4D8014D925D926D9226
:1010C0007C9213976AE570E0C70136DBB60187E0D2
:1010D00093E01FDB882321F022242394312C03C0CA
:1010E00082E0282E312CE981FA81808191812816B5
:1010F000390601F1EB81FC8180819181A281B3816C
:10110000892B8A2B8B2BB1F4AB81BC814D925D92E4
:101110006D927C921397B2E02B16310409F452C001
:1011200063E270E0C70108DBE1E0F0E0A981BA8189
:10113000ED93FC93BFEFCB1ADB0A0C5F1F4FE3E08C
:10114000EE0EF11C89819A8102969A838983AB8184
:10115000BC811496BC83AB83BFE0CB16D10409F0ED
:101160007ECFE0E0F0E0309709F456CF199554CFE8
:10117000823061F41092900080939100109295005B
:101180001092940088BB809371001ECF833061F46D
:101190001092A000D092A1001092A5001092A4007D
:1011A000D9BAD092720010CF81110ECF10922001C7
:1011B000D09221011092250110922401DABAD09226
:1011C000730002CF61E970E0C701B6DAA981BA8184
:1011D0002D923C92AFCFCF93DF9380911A02A1E37F
:1011E000B3E09FEF48EB5BE0803378F48C93282FDB
:1011F00030E0F901EE0FFF1F2E0F3F1FF901E95CF0
:10120000FD4F528341838F5F01C09C93139623E06F
:10121000AB35B20749F780931A028AE092E09093C7
:1012200008038093070381E090E0E8D0EC019093FD
:101230000A03809309038FE090E0E0D090930E03BF
:1012400080930D03009759F02FE0FC0111922A952D
:10125000E9F78FE090E090930C0380930B032196C5
:10126000D0930A03C093090384E192E090930803AA
:101270008093070381E090E09093100380930F0325
:1012800087E093E090932F0280932E028FEF80935C
:1012900025020E943A0180E090E0DF91CF91D4C80E
:1012A00084E192E0909308038093070380E090E04C
:1012B000CBD810922F0210922E028AE092E09093E7
:1012C000080380930703E0910903F0910A038081EA
:1012D0008150808381110CC080910D0390910E0389
:1012E000009709F020D18091090390910A031BC156
:1012F0000895052E97FB16F400940FD057FD05D0E6
:1013000024D007FC02D046F408C050954095309593
:1013100021953F4F4F4F5F4F089590958095709561
:1013200061957F4F8F4F9F4F089531D0A59F900DAE
:10133000B49F900DA49F800D911D11240895B7FFB7
:10134000F4CFF3DF821B930B0895A1E21A2EAA1BA0
:10135000BB1BFD010DC0AA1FBB1FEE1FFF1FA21765
:10136000B307E407F50720F0A21BB30BE40BF50B62
:10137000661F771F881F991F1A9469F760957095EB
:10138000809590959B01AC01BD01CF010895A29F6E
:10139000B001B39FC001A39F700D811D1124911D49
:1013A000B29F700D811D1124911D0895991B79E044
:1013B00004C0991F961708F0961B881F7A95C9F7E5
:1013C00080950895AA1BBB1B51E107C0AA1FBB1F34
:1013D000A617B70710F0A61BB70B881F991F5A95C1
:1013E000A9F780959095BC01CD010895EE0FFF1FE0
:1013F000881F8BBF0790F691E02D1994CF93DF9350
:101400008230910510F482E090E0E0919D03F0912C
:101410009E0320E030E0C0E0D0E0309711F1408141
:10142000518148175907C0F04817590761F4828164
:101430009381209719F09B838A832BC090939E03FE
:1014400080939D0326C02115310519F042175307DB
:1014500018F49A01BE01DF01EF010280F381E02D53
:10146000DCCF2115310509F1281B390B243031055A
:1014700090F412968D919C9113976115710521F04E
:10148000FB019383828304C090939E0380939D030A
:10149000FD01329644C0FD01E20FF31F8193919349
:1014A000225031092D933C933AC020919B033091F7
:1014B0009C03232B41F420910202309103023093CC
:1014C0009C0320939B03209100023091010221157F
:1014D000310541F42DB73EB7409104025091050209
:1014E000241B350BE0919B03F0919C03E217F3075B
:1014F000A0F42E1B3F0B2817390778F0AC014E5F84
:101500005F4F2417350748F04E0F5F1F50939C0321
:1015100040939B038193919302C0E0E0F0E0CF0100
:10152000DF91CF9108950F931F93CF93DF9300978F
:1015300009F48CC0FC0132971382128200919D0342
:1015400010919E030115110581F420813181820FD4
:10155000931F20919B0330919C032817390779F53D
:10156000F0939C03E0939B0371C0D80140E050E0EE
:10157000AE17BF0750F412962D913C911397AD0111
:101580002115310509F1D901F3CF9D01DA0133832A
:10159000228360817181860F971F8217930769F4F8
:1015A000EC0128813981260F371F2E5F3F4F318391
:1015B00020838A819B8193838283452B29F4F09336
:1015C0009E03E0939D0342C01396FC93EE93129703
:1015D000ED01499159919E01240F351FE217F30740
:1015E00071F480819181840F951F029611969C93CE
:1015F0008E938281938113969C938E931297E0E051
:10160000F0E0D80112968D919C911397009719F0F4
:10161000F8018C01F6CF8D919C9198012E5F3F4F80
:10162000820F931F20919B0330919C032817390749
:1016300069F4309729F410929E0310929D0302C022
:101640001382128210939C0300939B03DF91CF912E
:101650001F910F91089581E090E0F89400C011E08F
:10166000C8E0D1E000E005C0802FFE01BFDE21967A
:10167000011DC930D10780E00807B1F7F894FFCF0A
:1016800000009F03800000000000980389037C0392
:0A16900000000000980389037C03AA
:00000001FF
