:1000000008C1000036C1000034C1000032C1000048
:1000100030C100002EC100002CC100002AC1000028
:1000200028C1000026C1000024C1000022C1000038
:1000300020C100001EC100001CC100001AC1000048
:1000400018C10000C6C6000014C1000012C10000A3
:1000500010C100000EC100000CC10000B4C40000BB
:1000600008C10000FAC4000004C100006CC5000013
:1000700000C10000FEC00000FCC00000FAC000008B
:100080007BC60000F6C00000F4C00000F2C0000013
:10009000F0C00000EEC00000ECC00000EAC00000AC
:1000A000E8C00000E6C000003AC60000E2C0000060
:1000B000E0C00000DEC00000DCC0000003C600009D
:1000C000D8C00000D6C00000D4C00000D2C00000DC
:1000D000D0C00000CEC00000CCC00000CAC00000EC
:1000E000C8C00000D601D901C801CC01D00110025E
:1000F000DD01E101E701EB01EF01F501F901FD018E
:100100001002030207020B0200000A0B02090C0D89
:100110000E080703040100000000000000000000BA
:1001200000000000000000000000000000000000CF
:10013000000000001211100000000000000000008C
:1001400000000000000000000000000000000000AF
:100150002200250028002B002E003100340002016F
:100160000000050108010B01000021002400270008
:100170002A002D00300033000101000004010701B6
:100180000A0105050505070508080808020202021C
:100190000A0A080804040404010101010101010123
:1001A0000303030303030303040707070C0C0C0CEE
:1001B0000C0C0C0C020202020606060606060606D7
:1001C0000B0B0B0B0B0B0B0B010210202008081064
:1001D00020401020408002010201080402010102B7
:1001E0000408102040808040201008040201800490
:1001F00002018040201008040201080402010102EB
:100200000408102040800102040810204080EB0800
:10021000500911241FBECFEFD1E2DEBFCDBF00E0F9
:100220000CBF12E0A0E0B2E0E0E8F6E100E00BBFB6
:1002300002C007900D92AA31B107D9F723E0AAE1D5
:10024000B2E001C01D92AF39B207E1F711E0C8E09A
:10025000D1E000E006C021970109802FFE010E9435
:10026000F609C730D10780E00807A9F7DFD50C945D
:100270002F0BC6CE90E0FC01E853FE4F2491FC0109
:10028000EE57FE4F8491882399F090E0880F991FD4
:10029000FC01E859FE4FA591B491FC01E25BFE4FD1
:1002A000859194918FB7F894EC91E22BEC938FBFEA
:1002B0000895FC01662361F084E090E093838283DB
:1002C00010929A0310929903109298031092970338
:1002D000828193818530910539F18630910569F1EC
:1002E000049799F58091970390919803DF01A80FE7
:1002F000B91F14964C912091990330919A03240FC1
:10030000311D30939A03209399030196909398039B
:10031000809397034093C600268130E082179307AD
:10032000A0F085E090E006C080919A038093C6001B
:1003300086E090E09383828308C080919903809344
:10034000C6001382128281E0089580E00895362F5E
:1003500090E0FC01E85FFE4F4491FC01E853FE4F42
:100360002491FC01EE57FE4F9491992309F46BC040
:10037000442309F455C050E0FA013197E231F10508
:1003800008F04EC08827EE58FF4F8F4F0C94F609A7
:10039000809180008F7707C0809180008F7D03C09F
:1003A00080918000877F809380003AC084B58F77EA
:1003B00002C084B58F7D84BD33C08091B0008F773B
:1003C00003C08091B0008F7D8093B00029C08091E0
:1003D00090008F7707C0809190008F7D03C080913F
:1003E0009000877F809390001BC08091A0008F7742
:1003F00007C08091A0008F7D03C08091A000877FFF
:100400008093A0000DC0809120018F7707C080915C
:1004100020018F7D03C080912001877F8093200180
:10042000E92FF0E0EE0FFF1FE25BFE4FA591B491C4
:100430008FB7F894EC91311103C020952E2301C0A1
:100440002E2B2C938FBF08952091C2002E602093F5
:10045000C2008230910551F18CF4009719F1019797
:10046000E9F51092C50083E08093C4001092310238
:100470001092300280E98093C10016C0833091054C
:10048000F9F0049759F51092C0001092C50083E16D
:100490008093C4001092C60088E48093C10088E075
:1004A00090E017C01092C10060E018C01092C60022
:1004B00090932B0280932A0288E48093C1000DC0A0
:1004C0001092C50023E02093C4001092C600109241
:1004D000C10090932B0280932A0261E08091250253
:1004E00087FF35CF0895CF93DF93FC01442351F06C
:1004F00081E090E09383828315AE14AE10922402C3
:1005000010922302209123023091240228333105D6
:1005100008F066C08281938183309105D9F034F46C
:100520008130910551F0029761F05CC085309105F2
:10053000D1F1FCF00697D9F155C0648382E090E0D8
:1005400006C0613009F04CC0658383E090E093837E
:10055000828348C0668324E030E03383228370E0E6
:1005600063537F4F75AF64AF90932402809323024F
:1005700039C0A9014F5F5F4F50932402409323027B
:10058000DF01A20FB31F14966C9384AD95AD860F57
:10059000911D95AF84AF868190E04817590710F1FF
:1005A00085E090E0D4CF65AF86E090E0D0CFEF015A
:1005B00064AF24AD35ADC90160E070E003D78217A8
:1005C000930761F487E090E0938382830190F08148
:1005D000E02D0680F781E02DCE0119951B821A824D
:1005E00081E001C080E0DF91CF910895EF92FF920A
:1005F0001F93CF93DF93EC01162F442399F08A8544
:100600009B85039759F4E0912102F09122023097E3
:1006100029F080911F0290912002199581E090E0CD
:100620009B878A878A859B8582309105D1F08330AC
:10063000910539F1019709F056C0E881F9810480EC
:10064000F581E02D412F60E070E0CE01199588859D
:1006500099859093200280931F0282E090E09B870F
:100660008A8780911F029091200201979093200227
:1006700080931F02892BB9F583E090E09B878A87DE
:1006800032C0E0901F02F0902002C70101969093C3
:10069000200280931F02E881F9810190F081E02D12
:1006A000CE011995E816F90668F4E881F9816091A0
:1006B0001F02709120020480F581E02D412FCE01B0
:1006C000199511C084E090E09B878A87E091210210
:1006D000F0912202309749F080911F029091200200
:1006E0000297199502C080E001C081E0DF91CF91AF
:1006F0001F91FF90EF900895FC01248135816217CE
:10070000730730F486819781FC01E60FF71F408361
:100710000895FC01248135816217730738F48681BE
:100720009781FC01E60FF71F8081089580E008950E
:10073000FC01848195810895CF92DF92EF92FF9220
:10074000CF93DF93EC01603282E078070CF03BC07E
:1007500077FD06C0653B71052CF064EB70E002C0CC
:1007600060E070E0898128E830E06901C81AD108AA
:1007700087FDD394CC0CDD1CCC0CDD1C0D2C000CA7
:10078000EE08FF088A8128E532E0281B310987FD41
:100790003395220F331F220F331FC901330FAA0BCA
:1007A000BB0B9C01AD012C193D094E095F09DB0112
:1007B000C6D524EB30E040E050E09BD5C20ED31EFE
:1007C000E41EF51EB6018881803380F5998148E8E2
:1007D00050E0491B510997FD5395440F551F440F95
:1007E000551F6417750784F09A8128E532E0291BAC
:1007F000310997FD3395220F331F220F331FAB01B1
:10080000261737070CF4A90142505109440F551F10
:100810002FB7F89490E0FC01EE0FFF1F8E0F9F1F83
:10082000FC01E95CFD4F528341832FBFDF91CF91E3
:10083000FF90EF90DF90CF900895CF92DF92EF92EC
:10084000FF920F931F93CF93DF936C018B017A017B
:10085000EC01C55EDD4F888187FF04C0FB0111827A
:10086000108224C08CE08C9D90018D9D300D112450
:100870008881A901480F511D87FD5A9580911A0260
:1008800090E04817590794F48881A901480F511D39
:1008900087FD5A95CA01FA01EE0FFF1F8E0F9F1FA9
:1008A000FC01E95CFD4F808186FD19C088818F5F66
:1008B00088838CE08C9D90018D9D300D1124888162
:1008C000A901480F511D87FD5A9580911A0290E0A9
:1008D00048175907B4F488818C303CF112C08881E4
:1008E000280F311D87FD3A95F901EE0FFF1F2E0FDE
:1008F0003F1FF901E95CFD4F808160E08F7327DDC8
:10090000D5CFF80180819181049680349C4918F4F8
:1009100080E49CE904C0F801808191810496F7018C
:10092000918380838FEF888344C0F8014081518197
:100930008881B901680F711D87FD7A95CB01FB0194
:10094000EE0FFF1F8E0F9F1FFC01E95CFD4F8181A1
:100950009281840F951FF701918380838881A9017B
:10096000480F511D87FD5A95CA01FA01EE0FFF1F6E
:100970008E0F9F1FFC01E95CFD4F808186FF19C02F
:100980008881280F311D87FD3A95F901EE0FFF1F71
:100990002E0F3F1FF901E95CFD4F808161E08F73ED
:1009A000DF91CF911F910F91FF90EF90DF90CF904B
:1009B000CECCDF91CF911F910F91FF90EF90DF9000
:1009C000CF90089548D61F920F920FB60F92112420
:1009D0002F933F938F939F93AF93BF938091C702C1
:1009E0009091C802A091C902B091CA02309136021A
:1009F00023E0230F2D3720F40196A11DB11D05C062
:100A000026E8230F0296A11DB11D20933602809384
:100A1000C7029093C802A093C902B093CA02809102
:100A2000320290913302A0913402B09135020196C6
:100A3000A11DB11D8093320290933302A093340222
:100A4000B0933502BF91AF919F918F913F912F91BC
:100A50000F900FBE0F901F9018951F920F920FB618
:100A60000F9211240BB60F922F933F934F935F93E6
:100A70006F937F938F939F93AF93BF93EF93FF9366
:100A80008091C0006091C60084FF08C08091C000C2
:100A90008F7E8093C00081E090E018C0809130028A
:100AA000909131028530910539F18930910589F1B4
:100AB0000197B1F580912E0290912F02009759F085
:100AC000611109C041E092DD85E090E09093310230
:100AD0008093300225C080912C0290912D020097C6
:100AE00099F06C3C89F4FC0126AD22FF0DC041E079
:100AF000FADC89E090E0EACF40E080912E0290910C
:100B00002F0274DD882361F01092310210923002BE
:100B100007C040E080912C0290912D02E4DCF2CFDE
:100B2000FF91EF91BF91AF919F918F917F916F91C5
:100B30005F914F913F912F910F900BBE0F900FBE81
:100B40000F901F9018951F920F920FB60F921124BD
:100B50000BB60F922F933F934F935F936F937F93B7
:100B60008F939F93AF93BF93CF93DF93EF93FF93B5
:100B700080912A0290912B028630910509F44FC092
:100B800004F582309105C1F1049709F086C01092F6
:100B9000C0001092C50083E08093C40081E090E023
:100BA0009093290280932802E0912602F091270277
:100BB0000680F781E02D80818093C60086E090E07A
:100BC00060C08A30910509F452C08B30910509F458
:100BD0005DC0089709F061C01092C0001092C50076
:100BE00083E08093C40061E080912C0290912D02FB
:100BF00060DB8AE090E045C01092C0001092C50012
:100C000083E18093C4001092C60080912A029091E3
:100C10002B02029709F041C084E090E032C0C091FD
:100C20002602D0912702E881F9810280F381E02D2C
:100C30006091280270912902CB01019690932902BC
:100C400080932802CE0119958093C60080912802D6
:100C5000909129028130924000F18885882319F013
:100C600082E090E00EC083E090E0EEDB16C060E032
:100C700080912C0290912D021CDB882371F08BE077
:100C800090E090932B0280932A0207C081E090E0CD
:100C9000DBDB10922B0210922A02FF91EF91DF9181
:100CA000CF91BF91AF919F918F917F916F915F9104
:100CB0004F913F912F910F900BBE0F900FBE0F9051
:100CC0001F9018951F920F920FB60F9211240BB61A
:100CD0000F922F933F934F935F936F937F938F93D5
:100CE0009F93AF93BF93EF93FF9348E251E064E289
:100CF00071E080E090E0A1DDFF91EF91BF91AF91B5
:100D00009F918F917F916F915F914F913F912F9123
:100D10000F900BBE0F900FBE0F901F9018951F9253
:100D20000F920FB60F9211240BB60F922F933F9391
:100D30004F935F936F937F938F939F93AF93BF93E3
:100D4000EF93FF9348EA50E064EA70E083E090E0BC
:100D500074DDFF91EF91BF91AF919F918F917F9142
:100D60006F915F914F913F912F910F900BBE0F901C
:100D70000FBE0F901F9018951F920F920FB60F92F3
:100D800011240BB60F922F933F934F935F936F9362
:100D90007F938F939F93AF93BF93EF93FF9348E914
:100DA00050E064E970E082E090E047DDFF91EF9170
:100DB000BF91AF919F918F917F916F915F914F9173
:100DC0003F912F910F900BBE0F900FBE0F901F9071
:100DD00018951F920F920FB60F9211240BB60F9217
:100DE0002F933F934F935F936F937F938F939F9333
:100DF000AF93BF93EF93FF9348E850E064E870E04F
:100E000081E090E01ADDFF91EF91BF91AF919F914A
:100E10008F917F916F915F914F913F912F910F90A3
:100E20000BBE0F900FBE0F901F901895CF93DF93BE
:100E300000D01F92CDB7DEB7789484B5826084BDB0
:100E400084B5816084BD85B5826085BD85B58160CE
:100E500085BD80916E00816080936E00109281004C
:100E60008091810082608093810080918100816007
:100E700080938100809180008160809380008091C8
:100E8000B10084608093B1008091B0008160809354
:100E9000B0008091910082608093910080919100D8
:100EA0008160809391008091900081608093900098
:100EB0008091A10082608093A1008091A100816057
:100EC0008093A1008091A00081608093A000809118
:100ED00021018260809321018091210181608093B2
:100EE00021018091200181608093200180917A000E
:100EF000846080937A0080917A00826080937A0087
:100F000080917A00816080937A0080917A00806875
:100F100080937A001092C10013E3E12E13E0F12ECA
:100F200003E113E081E3882E83E0982EB12C9CE04E
:100F3000C92E22E0D22ED4018C91803308F051C00A
:100F40008B2D98D9F4018081E82FF0E09F01220FCA
:100F5000331FE20FF31FE95CFD4F9081907C2B2D36
:100F60002F73922B9083F70131971082D7011C9237
:100F70006C2D1CD2BCE08B9FB001112440E050E0EE
:100F80009A01260F371FF901EE0FFF1F2E0F3F1F8B
:100F9000F901E95CFD4F908196FD16C04F5F5F4FF0
:100FA0004C30510569F7813009F0E2C010928000A1
:100FB000D09281001092850010928400B19A8091A5
:100FC0006F00826080936F00D401EC91F0E0CF015C
:100FD000880F991FE80FF91FE95CFD4F808180643D
:100FE00080836AE570E0C401A7DBF80111921192D9
:100FF0008F01F3E08F0E911CB39483E0E80EF11C97
:101000009FE0B91298CF81E090E01EDA81E090E095
:101010009093100380930F038FB7F8948090C702CA
:101020009090C802A090C902B090CA028FBF0BEC8A
:1010300012E0ABE5B3E0BC83AB83E3E1F3E0FA831A
:10104000E98321E3E22E23E0F22EC12CD12C2401EE
:101050003501FEEE4F0EF2E05F1E611C711CF801BF
:1010600080819181A281B3810097A105B10581F0B2
:1010700088159905AA05BB0558F4108211821282C1
:101080001382EB81FC8110821182128213821EC0B6
:10109000EB81FC8140815181628173814115510551
:1010A0006105710599F0481559056A057B0570F4CD
:1010B000892B8A2B8B2B51F4D8014D925D926D9226
:1010C0007C9213976AE570E0C70136DBB60187E0D2
:1010D00093E01FDB882321F022242394312C03C0CA
:1010E00082E0282E312CE981FA81808191812816B5
:1010F000390601F1EB81FC8180819181A281B3816C
:10110000892B8A2B8B2BB1F4AB81BC814D925D92E4
:101110006D927C921397B2E02B16310409F452C001
:1011200063E270E0C70108DBE1E0F0E0A981BA8189
:10113000ED93FC93BFEFCB1ADB0A0C5F1F4FE3E08C
:10114000EE0EF11C89819A8102969A838983AB8184
:10115000BC811496BC83AB83BFE0CB16D10409F0ED
:101160007ECFE0E0F0E0309709F456CF199554CFE8
:10117000823061F41092900080939100109295005B
:101180001092940088BB809371001ECF833061F46D
:101190001092A000D092A1001092A5001092A4007D
:1011A000D9BAD092720010CF81110ECF10922001C7
:1011B000D09221011092250110922401DABAD09226
:1011C000730002CF61E970E0C701B6DAA981BA8184
:1011D0002D923C92AFCFCF93DF9380911A02A1E37F
:1011E000B3E09FEF48EB5BE0803378F48C93282FDB
:1011F00030E0F901EE0FFF1F2E0F3F1FF901E95CF0
:10120000FD4F528341838F5F01C09C93139623E06F
:10121000AB35B20749F780931A028AE092E09093C7
:1012200008038093070381E090E0E8D0EC019093FD
:101230000A03809309038FE090E0E0D090930E03BF
:1012400080930D03009759F02FE0FC0111922A952D
:10125000E9F78FE090E090930C0380930B032196C5
:10126000D0930A03C093090384E192E090930803AA
:101270008093070381E090E09093100380930F0325
:1012800087E093E090932F0280932E028FEF80935C
:1012900025020E943A0180E090E0DF91CF91D4C80E
:1012A00084E192E0909308038093070380E090E04C
:1012B000CBD810922F0210922E028AE092E09093E7
:1012C000080380930703E0910903F0910A038081EA
:1012D0008150808381110CC080910D0390910E0389
:1012E000009709F020D18091090390910A031BC156
:1012F0000895052E97FB16F400940FD057FD05D0E6
:1013000024D007FC02D046F408C050954095309593
:1013100021953F4F4F4F5F4F089590958095709561
:1013200061957F4F8F4F9F4F089531D0A59F900DAE
:10133000B49F900DA49F800D911D11240895B7FFB7
:10134000F4CFF3DF821B930B0895A1E21A2EAA1BA0
:10135000BB1BFD010DC0AA1FBB1FEE1FFF1FA21765
:10136000B307E407F50720F0A21BB30BE40BF50B62
:10137000661F771F881F991F1A9469F760957095EB
:10138000809590959B01AC01BD01CF010895A29F6E
:10139000B001B39FC001A39F700D811D1124911D49
:1013A000B29F700D811D1124911D0895991B79E044
:1013B00004C0991F961708F0961B881F7A95C9F7E5
:1013C00080950895AA1BBB1B51E107C0AA1FBB1F34
:1013D000A617B70710F0A61BB70B881F991F5A95C1
:1013E000A9F780959095BC01CD010895EE0FFF1FE0
:1013F000881F8BBF0790F691E02D1994CF93DF9350
:101400008230910510F482E090E0E0919D03F0912C
:101410009E0320E030E0C0E0D0E0309711F1408141
:10142000518148175907C0F04817590761F4828164
:101430009381209719F09B838A832BC090939E03FE
:1014400080939D0326C02115310519F042175307DB
:1014500018F49A01BE01DF01EF010280F381E02D53
:10146000DCCF2115310509F1281B390B243031055A
:1014700090F412968D919C9113976115710521F04E
:10148000FB019383828304C090939E0380939D030A
:10149000FD01329644C0FD01E20FF31F8193919349
:1014A000225031092D933C933AC020919B033091F7
:1014B0009C03232B41F420910202309103023093CC
:1014C0009C0320939B03209100023091010221157F
:1014D000310541F42DB73EB7409104025091050209
:1014E000241B350BE0919B03F0919C03E217F3075B
:1014F000A0F42E1B3F0B2817390778F0AC014E5F84
:101500005F4F2417350748F04E0F5F1F50939C0321
:1015100040939B038193919302C0E0E0F0E0CF0100
:10152000DF91CF9108950F931F93CF93DF9300978F
:1015300009F48CC0FC0132971382128200919D0342
:1015400010919E030115110581F420813181820FD4
:10155000931F20919B0330919C032817390779F53D
:10156000F0939C03E0939B0371C0D80140E050E0EE
:10157000AE17BF0750F412962D913C911397AD0111
:101580002115310509F1D901F3CF9D01DA0133832A
:10159000228360817181860F971F8217930769F4F8
:1015A000EC0128813981260F371F2E5F3F4F318391
:1015B00020838A819B8193838283452B29F4F09336
:1015C0009E03E0939D0342C01396FC93EE93129703
:1015D000ED01499159919E01240F351FE217F30740
:1015E00071F480819181840F951F029611969C93CE
:1015F0008E938281938113969C938E931297E0E051
:10160000F0E0D80112968D919C911397009719F0F4
:10161000F8018C01F6CF8D919C9198012E5F3F4F80
:10162000820F931F20919B0330919C032817390749
:1016300069F4309729F410929E0310929D0302C022
:101640001382128210939C0300939B03DF91CF912E
:101650001F910F91089581E090E0F89400C011E08F
:10166000C8E0D1E000E005C0802FFE01BFDE21967A
:10167000011DC930D10780E00807B1F7F894FFCF0A
:1016800000009F03800000000000980389037C0392
:0A16900000000000980389037C03AA
:020000023000CC
:10E000000D9489F10D94B2F10D94B2F10D94B2F129
:10E010000D94B2F10D94B2F10D94B2F10D94B2F1F0
:10E020000D94B2F10D94B2F10D94B2F10D94B2F1E0
:10E030000D94B2F10D94B2F10D94B2F10D94B2F1D0
:10E040000D94B2F10D94B2F10D94B2F10D94B2F1C0
:10E050000D94B2F10D94B2F10D94B2F10D94B2F1B0
:10E060000D94B2F10D94B2F10D94B2F10D94B2F1A0
:10E070000D94B2F10D94B2F10D94B2F10D94B2F190
:10E080000D94B2F10D94B2F10D94B2F10D94B2F180
:10E090000D94B2F10D94B2F10D94B2F10D94B2F170
:10E0A0000D94B2F10D94B2F10D94B2F10D94B2F160
:10E0B0000D94B2F10D94B2F10D94B2F10D94B2F150
:10E0C0000D94B2F10D94B2F10D94B2F10D94B2F140
:10E0D0000D94B2F10D94B2F10D94B2F10D94B2F130
:10E0E0000D94B2F141546D656761323536300041AF
:10E0F000726475696E6F206578706C6F72657220DE
:10E1000073746B3530305632206279204D4C530099
:10E11000426F6F746C6F616465723E004875683F52
:10E1200000436F6D70696C6564206F6E203D200048
:10E130004350552054797065202020203D20005FF9
:10E140005F4156525F415243485F5F3D2000415658
:10E1500052204C696243205665723D20004743437C
:10E160002056657273696F6E203D20004350552024
:10E1700049442020202020203D20004C6F7720663D
:10E18000757365202020203D20004869676820665F
:10E190007573652020203D200045787420667573D6
:10E1A00065202020203D20004C6F636B2066757336
:10E1B000652020203D20004D617220203720323024
:10E1C000313300312E362E3800342E332E350056A2
:10E1D00023202020414444522020206F7020636F70
:10E1E00064652020202020696E73747275637469E1
:10E1F0006F6E2061646472202020496E74657272B3
:10E20000757074006E6F20766563746F7200726A49
:10E210006D702020006A6D70200057686174207056
:10E220006F72743A00506F7274206E6F7420737541
:10E2300070706F72746564004D7573742062652030
:10E2400061206C6574746572002000577269747483
:10E25000696E672045450052656164696E672045B7
:10E26000450045452065727220636E743D00504F35
:10E27000525400303D5A65726F2061646472003FF1
:10E280003D43505520737461747300403D454550C3
:10E29000524F4D207465737400423D426C696E6B41
:10E2A000204C454400453D44756D70204545505215
:10E2B0004F4D00463D44756D7020464C415348001B
:10E2C000483D48656C70004C3D4C69737420492F83
:10E2D0004F20506F72747300513D51756974005234
:10E2E0003D44756D702052414D00563D73686F7707
:10E2F00020696E7465727275707420566563746FF0
:10E30000727300593D506F727420626C696E6B00BD
:10E310002A0011241FBECFEFD1E2DEBFCDBF01E046
:10E320000CBF12E0A0E0B2E0EEE1FDEF03E00BBFB6
:10E3300002C007900D92A030B107D9F712E0A0E01B
:10E34000B2E001C01D92AE30B107E1F70F9460F367
:10E350000D948DFE01E20EBF0FEF0DBF11241FBE05
:10E360000D9460F30D9400F020E030E040ED57E0B4
:10E3700005C0FA013197F1F72F5F3F4F2817390792
:10E38000C0F308959C01260F311DC901A0E0B0E043
:10E390002F5F3F4FABBFFC018791882361F08093D3
:10E3A000C6008091C00086FFFCCF8091C0008064D1
:10E3B0008093C000EACF08958DE08093C6008091DD
:10E3C000C00086FFFCCF8091C00080648093C000B5
:10E3D0008AE08093C6008091C00086FFFCCF8091C8
:10E3E000C00080648093C00008950F94C2F10F9420
:10E3F000DCF10895FC019081992359F09093C600B7
:10E400008091C00086FFFCCF8091C0008064809323
:10E41000C0003196992379F70895282F982F929567
:10E420009F70892F805D8A3308F0895F8093C600D2
:10E430008091C00086FFFCCF8091C00080648093F3
:10E44000C000822F8F70982F905D9A3308F0995FEB
:10E450009093C6008091C00086FFFCCF8091C000E1
:10E4600080648093C00008959C01FB01853691056E
:10E470001CF46330710594F0C90164E670E00F94F8
:10E480002EFE605D7F4F6093C6008091C00086FFC6
:10E49000FCCF8091C00080648093C0002B30310598
:10E4A00014F43297B4F0C90164E670E00F942EFEC4
:10E4B0006AE070E00F942EFE605D7F4F6093C600AF
:10E4C0008091C00086FFFCCF8091C0008064809363
:10E4D000C000C9016AE070E00F942EFEC0968093E0
:10E4E000C6008091C00086FFFCCF8091C000806490
:10E4F0008093C00008951F93182F8EE692EE60E07F
:10E500000F94C2F11093C6008091C00086FFFCCF2B
:10E510008091C00080648093C0000F94DCF11F9153
:10E5200008952F923F924F925F926F927F928F92B7
:10E530009F92AF92BF92CF92DF92EF92FF920F9392
:10E540001F93DF93CF93CDB7DEB762970FB6F894E2
:10E55000DEBF0FBECDBF382E622ECA01DB015C01CB
:10E560006D01772420E2222E2E010894411C511CBB
:10E570008BC081E0A81680E0B80681E0C80680E084
:10E58000D80628F0C601AA27BB270F940DF2BB2797
:10E59000AD2D9C2D8B2D0F940DF28A2D0F940DF225
:10E5A0002092C6008091C00086FFFCCF8091C00001
:10E5B00080648093C0009DE29093C6008091C0006B
:10E5C00086FFFCCF8091C00080648093C0002092C1
:10E5D000C6008091C00086FFFCCF8091C00080649F
:10E5E0008093C00019828601750188249924A1E0D6
:10E5F0003A1651F03A1620F0B2E03B1661F409C029
:10E600000BBFF701779007C0C7010F9477FE782EF4
:10E6100002C0F7017080872D0F940DF22092C60082
:10E620008091C00086FFFCCF8091C0008064809301
:10E63000C000872D8052F401EF70F0708F3520F408
:10E64000E40DF51D708204C0E40DF51D8EE280839B
:10E650000894E11CF11C011D111D0894811C911CE2
:10E6600090E18916910409F0C2CF80E190E0A0E02A
:10E67000B0E0A80EB91ECA1EDB1E198AC2010F9493
:10E68000FAF10F94DCF16A94662009F072CF629679
:10E690000FB6F894DEBF0FBECDBFCF91DF911F91B3
:10E6A0000F91FF90EF90DF90CF90BF90AF909F9031
:10E6B0008F907F906F905F904F903F902F90089534
:10E6C0002F923F924F925F926F927F928F929F9282
:10E6D000AF92BF92CF92DF92EF92FF920F931F9370
:10E6E000DF93CF93CDB7DEB7CD53D1400FB6F894BB
:10E6F000DEBF0FBECDBF01E20EBF0FEF0DBF94B75F
:10E70000F894A89514BE80916000886180936000A1
:10E7100010926000789493FF05C0E0910002F091A0
:10E7200001021995279A2F9A8091C00082608093E8
:10E73000C00080E18093C40088E18093C1000000A4
:10E74000EE24FF24870144E0A42EB12CCC24DD2448
:10E7500024C0C5010197F1F70894E11CF11C011DCB
:10E76000111D21E2E2162EE4F20620E0020720E06D
:10E77000120718F031E0C32ED12CC801B70127ECE5
:10E780003BE140E050E00F9441FE611571058105C9
:10E79000910519F485B1805885B98091C00087FD35
:10E7A00003C0C114D104A9F2A6014F5F5F4FC25E3E
:10E7B000DE4F59834883CE51D140C25EDE4F8881FF
:10E7C0009981CE51D140019711F00D9410FEC05D9A
:10E7D000DE4F19821882C053D14060E0C15DDE4F28
:10E7E0001882CF52D14088249924C35DDE4F19820C
:10E7F0001882CD52D140C05EDE4F188219821A8233
:10E800001B82C052D140CE5CDE4F188219821A8220
:10E810001B82C253D140EE24FF2487010BBFF701B6
:10E8200007911691C45CDE4F19830883CC53D14005
:10E830000D940BFEC25EDE4F28813981CE51D1404E
:10E840002130310509F52091C600C25EDE4F1982E4
:10E850001882CE51D14022C02F5F3F4F4F4F5F4FA4
:10E86000213082E138078AE7480780E0580780F0C6
:10E87000C45CDE4FE881F981CC53D140EF5FFF4F9C
:10E8800019F0EE27FF27099420E030E040E050E047
:10E890008091C00087FFE0CF2091C600C35DDE4FAE
:10E8A00048815981CD52D1404F5F5F4FC35DDE4FEC
:10E8B00059834883CD52D140213209F063C64A3092
:10E8C000510508F05FC60894811C911C53E0851621
:10E8D000910409F059C600E010E018C081E280936D
:10E8E000C6008091C00086FFFCCF8091C00080648C
:10E8F0008093C0002F5F3F4F2931310579F70F9486
:10E90000DCF10F5F1F4F0530110519F020E030E0FA
:10E91000E5CF10920A0210920B0210920C02109294
:10E920000D02109206021092070210920802109235
:10E930000902109202021092030210920402109235
:10E9400005028FEE90EE60E00F94F5F180E191EE1C
:10E9500060E00F94C2F18091C00087FFFCCF9091DE
:10E96000C600903608F09F759032B8F09093C600BC
:10E970008091C00086FFFCCF8091C00080648093AE
:10E98000C000A0E2A093C6008091C00086FFFCCF2B
:10E990008091C00080648093C000983409F4D7C18E
:10E9A0009934B8F4923409F459C1933458F490333B
:10E9B00019F1903308F4E3C59F33A1F1903409F0C5
:10E9C000DEC5BDC0953409F470C1963409F0D7C5D1
:10E9D00098C1923509F42BC2933538F49C3409F46C
:10E9E000F5C1913509F0CBC518C2963509F445C279
:10E9F000993509F0C4C567C483E792EE62E00F94CD
:10EA0000F5F110920602109207021092080210927D
:10EA1000090210920A0210920B0210920C0210923C
:10EA20000D0213C18FE792EE62E00F94F5F18FEEC5
:10EA300090EE60E00F94F5F181E291EE60E00F94CA
:10EA4000C2F187EB91EE60E00F94F5F180E391EE77
:10EA500060E00F94C2F184EE90EE60E00F94F5F167
:10EA60008FE391EE60E00F94C2F186E090E061E008
:10EA700070E00F9434F20F94DCF18DE591EE60E0DC
:10EA80000F94C2F189EC91EE60E00F94F5F18EE401
:10EA900091EE60E00F94C2F183EC91EE60E00F9490
:10EAA000F5F18CE691EE60E00F94C2F18EE10F94E7
:10EAB0000DF288E90F940DF281E00F940DF20F949E
:10EAC000DCF18BE791EE60E00F94C2F119E0E0E039
:10EAD000F0E010935700E4918E2F0F940DF20F94F5
:10EAE000DCF18AE891EE60E00F94C2F1E3E0F0E03F
:10EAF00010935700E4918E2F0F940DF20F94DCF1D8
:10EB000089E991EE60E00F94C2F1E2E0F0E0109349
:10EB10005700E4918E2F0F940DF20F94DCF188EAE8
:10EB200091EE60E00F94C2F1E1E0F0E01093570045
:10EB30001491812F0F940DF20F94DCF107CF8BE825
:10EB400092EE62E00F94F5F18BE492EE60E00F94A8
:10EB5000F5F10F94DCF100E010E019C0C8016F2D51
:10EB60000F947FFEFF2031F489E492EE60E00F9471
:10EB7000C2F10BC0F092C6008091C00086FFFCCFAE
:10EB80008091C00080648093C0000F5F1F4FC80158
:10EB900081519F41A0E0B0E0ABBFFC01F790BAE229
:10EBA000FB1621F0E2E000301E07C1F60F94DCF105
:10EBB0000F94DCF187E592EE60E00F94F5F10F948D
:10EBC000DCF1CC24DD2400E010E01EC0C8010F946D
:10EBD00077FEF82E882331F489E492EE60E00F94FA
:10EBE000C2F10BC08093C6008091C00086FFFCCFAD
:10EBF0008091C00080648093C000FE1419F00894D6
:10EC0000C11CD11C0F5F1F4FC80181519F41A0E063
:10EC1000B0E0ABBFFC01E790FAE2EF1621F022E092
:10EC20000030120799F60F94DCF10F94DCF182E6C4
:10EC300092EE60E00F94C2F1C60161E070E00F94C3
:10EC400034F20F94DCF10F94DCF110920202109276
:10EC50000302109204021092050278CE89E992EE26
:10EC600062E00F94F5F1279A2F9A16C02F9880E052
:10EC700090E0E0EDF7E03197F1F7019684369105E9
:10EC8000C1F72F9A80E090E0E0EDF7E03197F1F7DF
:10EC9000019684369105C1F78091C00087FFE6CFC9
:10ECA0008091C00087FFFCCF64C485EA92EE62E0E9
:10ECB0000F94F5F140910202509103026091040219
:10ECC0007091050281E020E10F9491F2809102029F
:10ECD00090910302A0910402B091050280509F4FD1
:10ECE000AF4FBF4F8093020290930302A0930402A0
:10ECF000B093050280509041A040B04008F426CE69
:10ED0000A4CF83EB92EE62E00F94F5F140910602FE
:10ED100050910702609108027091090280E020E1A1
:10ED20000F9491F28091060290910702A09108023F
:10ED3000B091090280509F4FAF4FBF4F80930602A2
:10ED400090930702A0930802B0930902FFCD80ECD4
:10ED500092EE62E00F94F5F183E792EE60E00F949B
:10ED6000F5F18FE792EE60E00F94F5F18BE892EE0B
:10ED700060E00F94F5F189E992EE60E00F94F5F10F
:10ED800085EA92EE60E00F94F5F183EB92EE60E09D
:10ED90000F94F5F180EC92EE60E00F94F5F187ECC2
:10EDA00092EE60E00F94F5F188ED92EE60E00F9442
:10EDB000F5F18FED92EE60E00F94F5F18AEE92EEB0
:10EDC00060E00F94F5F183E093EEBDCD87EC92EE19
:10EDD00062E00F94F5F181E40F947BF282E40F94EA
:10EDE0007BF283E40F947BF284E40F947BF285E45E
:10EDF0000F947BF286E40F947BF287E40F947BF20E
:10EE000088E40F947BF28AE40F947BF28BE40F94F6
:10EE10007BF28CE40F947BF299CD88ED92EE62E068
:10EE20000F94F5F1772473948824992409C48FED05
:10EE300092EE62E00F94F5F140910A0250910B02BC
:10EE400060910C0270910D0282E020E10F9491F22A
:10EE500080910A0290910B02A0910C02B0910D02D8
:10EE600080509F4FAF4FBF4F80930A0290930B0289
:10EE7000A0930C02B0930D0269CD8AEE92EE62E08F
:10EE80000F94F5F184EE90EE60E00F94F5F18FECC5
:10EE900091EE60E00F94F5F1662477244301CC5D98
:10EEA000DE4F19821882C452D140D401C301B695F5
:10EEB000A79597958795CA5DDE4F88839983AA8326
:10EEC000BB83C652D140CC5DDE4FA881B981C4520C
:10EED000D1401196CC5DDE4FB983A883C452D14096
:10EEE000CD0162E070E00F9434F2B0E2B093C6005E
:10EEF0008091C00086FFFCCF8091C0008064809329
:10EF0000C000EDE2E093C6008091C00086FFFCCF18
:10EF10008091C00080648093C000F0E2F093C6004E
:10EF20008091C00086FFFCCF8091C00080648093F8
:10EF3000C000CA5DDE4FE880F9800A811B81C6529D
:10EF4000D140BB27A12F902F8F2D0F940DF2CA5DBA
:10EF5000DE4F8881C652D1400F940DF2B0E2FB2EF5
:10EF6000F092C6008091C00086FFFCCF8091C00067
:10EF700080648093C0000DE30093C6008091C000C0
:10EF800086FFFCCF8091C00080648093C00010E2B7
:10EF90001093C6008091C00086FFFCCF8091C00016
:10EFA00080648093C0008BBEF3012791C65DDE4F65
:10EFB0002883CA52D140A22EBB24CC24DD2408943D
:10EFC000611C711C811C911C8BBEF3018791282E42
:10EFD0003324442455240894611C711C811C911C09
:10EFE0008BBEF3013791C55DDE4F3883CB52D140E4
:10EFF0000894611C711C811C911C8BBEF30147910C
:10F00000C45DDE4F4883CC52D140ADEFEA2EAFEF66
:10F01000FA2EAFEF0A2FAFEF1A2F6E0C7F1C801E57
:10F02000911E142D032DF22CEE24EA0CFB1C0C1D5A
:10F030001D1D0F940DF220E22093C6008091C000A8
:10F0400086FFFCCF8091C00080648093C000C65DC5
:10F05000DE4F8881CA52D1400F940DF230E23093D6
:10F06000C6008091C00086FFFCCF8091C000806404
:10F070008093C000C45DDE4F8881CC52D1400F9494
:10F080000DF240E24093C6008091C00086FFFCCFA5
:10F090008091C00080648093C000C55DDE4F888190
:10F0A000CB52D1400F940DF250E25093C6008091A4
:10F0B000C00086FFFCCF8091C00080648093C000B8
:10F0C0008FEFE8168FEFF80680E0080780E018075A
:10F0D00031F484E092EE60E00F94C2F1DFC0D80119
:10F0E000C7018070907CA070B0708050904CA040A0
:10F0F000B040D1F52FEF3FE340E050E0E222F322B1
:10F1000004231523CA5DDE4FA880B980CA80DB8046
:10F11000C652D140AE0CBF1CC01ED11EAA0CBB1CD7
:10F12000CC1CDD1C8EE092EE60E00F94C2F1BB2798
:10F13000A12F902F8F2D0F940DF28E2D0F940DF285
:10F1400030E23093C6008091C00086FFFCCF8091F2
:10F15000C00080648093C0004EE34093C60080915D
:10F16000C00086FFFCCF87C08EE09EEFA0E0B0E03D
:10F17000E822F9220A231B239CE0E91694E9F90608
:10F1800090E0090790E0190709F088C0C45DDE4FE0
:10F19000A881CC52D140EA2EFF2400E010E0102FCD
:10F1A0000F2DFE2CEE24C55DDE4FB881CB52D14031
:10F1B000EB0EF11C011D111DD601C501817090706F
:10F1C000A070B070DC0199278827E80EF91E0A1F8D
:10F1D0001B1F20EF30E040E050E0A222B322C42207
:10F1E000D52241E1AA0CBB1CCC1CDD1C4A95D1F7F1
:10F1F000EA0CFB1C0C1D1D1D81E090E0A0E0B0E0BE
:10F20000282239224A225B2235E1220C331C441C7D
:10F21000551C3A95D1F7E20CF31C041D151D57013E
:10F220006801AA0CBB1CCC1CDD1C85E192EE60E0E1
:10F230000F94C2F1C801AA27BB270F940DF2BB2778
:10F24000A12F902F8F2D0F940DF28E2D0F940DF274
:10F2500090E29093C6008091C00086FFFCCF809121
:10F26000C00080648093C000AEE3A093C60080918C
:10F27000C00086FFFCCF8091C00080648093C000F6
:10F28000C601AA27BB270F940DF2BB27AD2D9C2DDD
:10F290008B2D0F940DF28A2D0F940DF20F94DCF14B
:10F2A000CC5DDE4FE881F981C452D140F99709F471
:10F2B0004DCBF4E0EF2EF12C012D112D6E0C7F1CA7
:10F2C000801E911EF2CD83E093EE62E00F94F5F183
:10F2D0008AE192EE60E00F94C2F18091C00087FF56
:10F2E000FCCF1091C6001F751093C6008091C0001E
:10F2F00086FFFCCF8091C00080648093C0000F9493
:10F30000DCF1812F81548A3108F036C1163409F4BA
:10F3100095C0173490F4133409F44EC0143430F40B
:10F320001134F1F0123409F01DC130C0143409F465
:10F3300059C0153409F016C16BC01A3409F4C4C0A1
:10F340001B3438F4173409F48FC0183409F00AC19B
:10F35000A1C01B3409F4D2C01C3409F003C1E8C0B9
:10F360008FEF81B90DC082B1809582B980E090E0C5
:10F37000E0EDF7E03197F1F70196883C9105C1F790
:10F380008091C00087FFEFCF12B8EFC08FEF84B934
:10F390000DC085B1809585B980E090E0E0EDF7E0A3
:10F3A0003197F1F70196883C9105C1F78091C00033
:10F3B00087FFEFCF15B8D9C08FEF87B90DC088B1DF
:10F3C000809588B980E090E0E0EDF7E03197F1F7C3
:10F3D0000196883C9105C1F78091C00087FFEFCF6F
:10F3E00018B8C3C08FEF8AB90DC08BB180958BB9A7
:10F3F00080E090E0E0EDF7E03197F1F70196883C8E
:10F400009105C1F78091C00087FFEFCF1BB8ADC059
:10F410008FEF8DB90DC08EB180958EB980E090E0F0
:10F42000E0EDF7E03197F1F70196883C9105C1F7DF
:10F430008091C00087FFEFCF1EB897C08FEF80BBD1
:10F440000DC081B3809581BB80E090E0E0EDF7E0F6
:10F450003197F1F70196883C9105C1F78091C00082
:10F4600087FFEFCF11BA81C08FEF83BB0DC084B38C
:10F47000809584BB80E090E0E0EDF7E03197F1F714
:10F480000196883C9105C1F78091C00087FFEFCFBE
:10F4900014BA6BC08FEF809301010FC080910201FD
:10F4A00080958093020180E090E0E0EDF7E03197F5
:10F4B000F1F70196883C9105C1F78091C00087FF64
:10F4C000EDCF1092020151C08FEF809304010FC065
:10F4D0008091050180958093050180E090E0E0ED4A
:10F4E000F7E03197F1F70196883C9105C1F78091DB
:10F4F000C00087FFEDCF1092050137C08FEF8093DA
:10F5000007010FC08091080180958093080180E079
:10F5100090E0E0EDF7E03197F1F70196883C910536
:10F52000C1F78091C00087FFEDCF109208011DC088
:10F530008FEF80930A010FC080910B01809580931B
:10F540000B0180E090E0E0EDF7E03197F1F70196F4
:10F55000883C9105C1F78091C00087FFEDCF1092E4
:10F560000B0103C085E292EEEEC98091C00087FFD7
:10F57000FCCF8091C600EAC988E392EEE4C98CE131
:10F5800091EEE1C988249924933011F1943028F444
:10F59000913089F09230B8F408C0953061F195301F
:10F5A000F0F0963009F048C043C02B3109F042C951
:10F5B00091E06BE13FC96227C15DDE4F2883CF52E6
:10F5C000D14092E037C9B22FA0E0622793E032C960
:10F5D000822F90E0A82BB92B622794E02BC92E3004
:10F5E00009F039C3622795E0C05DDE4F19821882A9
:10F5F000C053D1401FC9E1E0F0E0EC0FFD1FC05D3A
:10F60000DE4F08811981C053D140E00FF11F2083E4
:10F610000F5F1F4FC05DDE4F19830883C053D14079
:10F6200062270A171B0709F005C9D80196E002C92D
:10F63000261709F010C303C0973009F0FBC87724E0
:10F640009981933109F412C19431C8F4963009F4C8
:10F65000D8C0973050F4923009F406C1933009F4C1
:10F660006DC0913009F059C253C0913109F477C08F
:10F67000923108F0BBC0903109F04FC2F5C098310B
:10F6800009F487C0993150F4953109F4EFC09531F0
:10F6900008F4C6C1963109F040C2C2C19A3109F4DA
:10F6A0006CC09A3108F491C09B3109F45BC09D3164
:10F6B00009F033C29D81903359F48F81882311F46E
:10F6C0009EE11CC0813011F091E018C098E916C08D
:10F6D000892F807591F0903539F4E0E0F0E089E011
:10F6E0008093570094910AC0983539F4E3E0F0E034
:10F6F00089E080935700949101C090E01A821B82A8
:10F700008D818C831D829E831F8227E030E009C299
:10F710001A8288E08B8381E48C8386E58D8382E581
:10F720008E8389E48F8383E5888780E589878FE5E9
:10F730008A8782E38B872BE030E0F3C18A818139AD
:10F7400041F0823941F0803911F48FE005C080E04A
:10F7500003C082E001C08AE01A828B8344C0772410
:10F76000739482C08D81882311F48EE12CC0813086
:10F7700011F081E028C088E926C01A82E1E0F0E0BB
:10F7800089E08093570084918B831C8224E030E0D1
:10F79000C8C18B81803589F48C81883039F4E2E0EE
:10F7A000F0E089E08093570084910DC0E0E0F0E044
:10F7B00089E080935700849106C0E3E0F0E089E09F
:10F7C0008093570084911A82DFCF8D81836C99E0FA
:10F7D000E1E0F0E0082E90935700E89507B600FCB2
:10F7E000FDCF1A821B8223E030E09BC180EC8A832C
:10F7F000CE5CDE4F188219821A821B82C253D1401E
:10F800008EC18A8190E0A0E0B0E0582F44273327D2
:10F8100022278B8190E0A0E0B0E0DC0199278827C7
:10F82000282B392B4A2B5B2B8D8190E0A0E0B0E098
:10F83000282B392B4A2B5B2B8C8190E0A0E0B0E089
:10F84000BA2FA92F982F8827282B392B4A2B5B2BCF
:10F85000220F331F441F551FC05EDE4F288339839C
:10F860004A835B83C052D1401A8259C13A81C95C34
:10F87000DE4F3883C753D140CA5CDE4F1882C6536F
:10F88000D1408B81C82EDD24CA5CDE4F488159816E
:10F89000C653D140C42AD52A933109F082C0CE5C28
:10F8A000DE4F88819981AA81BB81C253D1408050AB
:10F8B000904CA340B04030F583E0CE5CDE4FE88052
:10F8C000F9800A811B81C253D140F70100935B008C
:10F8D00080935700E89507B600FCFDCFCE5CDE4F65
:10F8E000088119812A813B81C253D14000501F4FAA
:10F8F0002F4F3F4FCE5CDE4F088319832A833B8313
:10F90000C253D140C05EDE4F488159816A817B81FC
:10F91000C052D140DE011B9631E08C9111962C91A2
:10F9200011971296C75CDE4F2883C953D140C85C3B
:10F93000DE4F1882C853D14090E0C85CDE4FE881AA
:10F94000F981C853D1408E2B9F2B0C01FA01609393
:10F950005B0030935700E89511244E5F5F4F6F4F67
:10F960007F4F0EEFE02E0FEFF02ECE0CDF1CC114F8
:10F97000D10499F685E0C05EDE4F088119812A81A5
:10F980003B81C052D140F80120935B008093570027
:10F99000E89507B600FCFDCF81E180935700E8951C
:10F9A00035C0C05EDE4F88819981AA81BB81C0527B
:10F9B000D140B695A795979587957C018601ABE0D8
:10F9C000AA2EB12CAC0EBD1E0BC0D5016D915D01F0
:10F9D000C7010F947FFE0894E11CF11C01501040F8
:10F9E0000115110591F7A60160E070E0440F551F65
:10F9F000661F771FC05EDE4FE880F9800A811B8199
:10FA0000C052D1404E0D5F1D601F711F1A82C05E33
:10FA1000DE4F488359836A837B83C052D1407FC0C5
:10FA2000FA80C55CDE4FF882CB53D140C65CDE4F16
:10FA30001882CA53D1408B81C82EDD24C65CDE4FAC
:10FA400008811981CA53D140C02AD12A1A828981DA
:10FA5000BE016D5F7F4F843121F59601C05EDE4FA0
:10FA6000E880F9800A811B81C052D1400BBFF701A9
:10FA700087919691DB018C9311969C936E5F7F4FDB
:10FA8000D801C7010296A11DB11DC05EDE4F88835B
:10FA90009983AA83BB83C052D14022503040F1F6F3
:10FAA00036C0C05EDE4F288139814A815B81C052F9
:10FAB000D1400894C108D108760100E010E0089414
:10FAC000C11CD11C0894E11CF11C011D111DE20E8A
:10FAD000F31E041F151F21BDBB27A52F942F832FB5
:10FAE00082BD2F5F3F4F4F4F5F4FF89A80B5DB01CC
:10FAF0008D93BD012E153F054007510761F7C05E8C
:10FB0000DE4F288339834A835B83C052D1409601FC
:10FB10002D5F3F4FFB01108204C080EC8A8322E0FE
:10FB200030E08BE18093C6008091C00086FFFCCF5F
:10FB30008091C00080648093C000C15DDE4FF88179
:10FB4000CF52D140F093C6008091C00086FFFCCF19
:10FB50008091C00080648093C000432F3093C60022
:10FB60008091C00086FFFCCF8091C00080648093AC
:10FB7000C000922F2093C6008091C00086FFFCCF6A
:10FB80008091C00080648093C0008EE08093C600A6
:10FB90008091C00086FFFCCF8091C000806480937C
:10FBA000C00065E1C15DDE4FE880CF52D1406E25D7
:10FBB00069276427FE01319610C090819093C6009A
:10FBC0008091C00086FFFCCF31968091C000806498
:10FBD0008093C0006927215030402115310569F715
:10FBE0006093C6008091C00086FFFCCF8091C0006A
:10FBF00080648093C00085B1805885B9772081F4F6
:10FC0000C15DDE4F0881CF52D1400F5FC15DDE4F35
:10FC10000883CF52D14090E0A0E0B0E00D941AF4F8
:10FC200027982F9880E090E020ED37E0F901319798
:10FC3000F1F7019684369105C9F700008091C00064
:10FC40008D7F8093C00081E180935700E895EE2777
:10FC5000FF270994FFCF90E00D941AF497FB092E2B
:10FC600007260AD077FD04D02ED006D000201AF443
:10FC7000709561957F4F0895F6F7909581959F4F08
:10FC80000895A1E21A2EAA1BBB1BFD010DC0AA1FDD
:10FC9000BB1FEE1FFF1FA217B307E407F50720F0F5
:10FCA000A21BB30BE40BF50B661F771F881F991F70
:10FCB0001A9469F760957095809590959B01AC01B9
:10FCC000BD01CF010895AA1BBB1B51E107C0AA1FAC
:10FCD000BB1FA617B70710F0A61BB70B881F991FED
:10FCE0005A95A9F780959095BC01CD010895F99991
:10FCF000FECF92BD81BDF89A992780B50895262F31
:10FD0000F999FECF1FBA92BD81BD20BD0FB6F89400
:0EFD1000FA9AF99A0FBE01960895F894FFCF63
:040000033000E000E9
:00000001FF